:020000007D2C55
:06000600000000000800EC
:10000C000F30FC004730FD00FD0B0A28FC0B0A28C2
:06001C00000000000800D6
:0A0022002130FD00FD0B132808003B
:10002C002000F8010830FC00700DF80D7408F8027F
:10003C0003182228F8070310F00DFC0B1A280800EF
:10004C002100E11B2C2820000C102E2820000C1461
:10005C002100611B342820008C10362820008C14C1
:10006C002100E11A3C2820000C113E2820000C1520
:10007C002100611A442820008C11462820008C1580
:10008C006D184A288C164B288C120C1603200C1257
:10009C002100E119542820000C10562820000C14C3
:1000AC00210061195C2820008C105E2820008C1423
:1000BC002100E118642820000C11662820000C1582
:1000CC00210061186C2820008C116E2820008C15E2
:1000DC006D1872288C1673288C120C1603200C12B7
:0C00EC006D1C7A2806207B2811200800DB
:1000F80020006D1021005B08E10026206D14080027
:100108002100DE0103305E02031894285E085C07B4
:10011800860000305D3D870020308100DE0A862899
:100128005E085C07860000305D3D87008101DE03C4
:100138005E085C07DF0000305D3DE0000A30F40037
:100148005B08F00016207808F0003030F007210036
:100158005F08860060088700700881000A30F40094
:100168005B08F000162070082100DB007008003AD8
:0C017800031DBF28C128DE039C280800DE
:1001840021005208240091001418C928C628110817
:04019400F00008006F
:1001980021000C128C128C110C118C100C102000E8
:1001A8000C128C120C108C100C118C1106200620CD
:1001B80006200C158C150C1603200C1206200C16A4
:1001C80003200C1206200C1603200C1206208C119A
:1001D8000C1603200C1206200C1603200C120C110E
:1001E8000C140C1603200C1206200C108C150C167F
:1001F80003200C128C110C1603200C1206200C166E
:1002080003200C128C150C1603200C1206208C11DE
:100218000C1603200C120C148C140C158C150C16CF
:0A02280003200C1206206D140800DC
:100232002A2980302100D2003C29C030D2003C293A
:100242009430D2003C29D430D2003C298030D200F4
:100252003C2921005208013A03191A295208023A8C
:1002620003191E295208033A031921295208043A94
:100272000319242927295303F0005208F0077008B4
:10028200D2007008E10026206D102100D601560828
:10029200540784000030553D8500000803195D298C
:1002A2005608540784000030553D85000008DB00E5
:0E02B2007C202100D60A482920006D14080087
:1002C000C2302100BC000030BD00D230BE00003082
:1002D000BF001F30B8000230B900D230BA00003081
:1002E000BB008E128E110E16240095014030940032
:0402F0009516080057
:1002F4002100D701D8015208D9000030D91BFF30A2
:10030400DA0080305206F0008030003A70020318A0
:100314009629D70A0319D80A5208003CD900DA01F1
:100324000030D21BFF30DA3B5908DB005308DC00F5
:100334005408DD0084200430D5000030D60056086F
:10034400003C031DA7295508003C0318C229550881
:10035400530786005608543D870001305502F000CB
:100364000030563BF1007008530784007108543D77
:100374008500000881000130D5020030D63BA12958
:100384005308860054088700203081005708580419
:100394000319E829D501D6015508530784005608E6
:1003A400543D85000008203A031DDC29D50A0319B1
:1003B400D60ACE290130D5020030D63B5508530762
:0E03C40086005608543D87002D308100080049
:1003D20020002230FC00F801F901FA01FB01FC03C4
:1003E20003191E2A0310FB0CFA0CF90CF80CF30C7F
:1003F200F20CF10CF00C031CF029FC030319102A77
:100402007408F80775080318750FF90776080318BA
:10041200760FFA0777080318770FFB07F429740899
:10042200F80775080318750FF90776080318760F91
:0C043200FA0777080318770FFB07080093
:10043E0021005208240091001418262A232A11089C
:04044E00F0000800B2
:1004520021004008CE004108CF004208D0004308E6
:10046200D1005F30C4000D30C5004430C6000130F9
:10047200C7000130C8004E08C9004F08CA00500822
:10048200CB004308CC00DB30CD0020008D140E11D0
:100492002100D2011F222000EE0180306E06F00002
:1004A20080300A3A70020318672AC4308400003090
:1004B20085006E0884070030EE1BFF30853D000882
:1004C2002100D2001F222000EE0A4E2A0E151A30F9
:1004D200FC00F830FD00FD0B6C2AFC0B6C2A0000BE
:1004E2000E1122302100D2001F222000EE018030A6
:1004F2006E06F0008030043A70020318912ACE3062
:100502008400003085006E0884070030EE1BFF3047
:10051200853D00082100D2001F222000EE0A782A21
:040522000E150800AA
:10052600D0302100C0000730C100C201C301D03065
:10053600F0000730F1000030F2000030F300200038
:100546006E08F4006F08F500F601F701E92170085E
:100556002100C0007108C1007208C2007308C30000
:1005660000307302031DC12A00307202031DC12A26
:1005760002307102031DC12AB23070020318C42A68
:10058600F32AB230C0020230C13B0030C23BC33B4B
:100596000530F00070080319D62AC336C20CC10C08
:1005A600C00CFF3ECE2A4008F0004108F100420888
:1005B600F2004308F3000130C0020030C13BC23BE9
:1005C600C33B70087104720473040319F32A000014
:1005D6000000000000000000000000000000D62A15
:0205E60008000B
:1005E8002000FB01FA01F9018030F800F10CF00C51
:1005F800031C072B7408F90775080318750FFA0709
:100608000318FB0A0310F01F0F2B7408FA0775086C
:100618000318750FFB07FB0CFA0CF90CF80C031CFC
:10062800FA2A7B08F3007A08F2007908F1007808C2
:04063800F0000800C6
:10063C0020000D108D148E170E1F492B0E1C492BEC
:10064C000E1124302100D2001F2220006E08210040
:10065C00D200C22070082000A0000E15A10A2108AB
:10066C00013A031D492B0D150630FB001330FC001D
:10067C00AD30FD00FD0B402BFC0B402BFB0B402B3E
:08068C00000000000D11080040
:1006940012001E00F003031D4A2BF103031D4A2B15
:0206A40008004C
:1006A6008B01303021008D0023008D018C014130FB
:1006B60021008E0023008E0160210C3020008D0069
:1006C6001F30FB007130FC001E30FD00FD0B692B56
:1006D600FC0B692BFB0B692B0000CC200230FB00C6
:1006E6000430FC00BA30FD00FD0B772BFC0B772B9A
:1006F600FB0B772B00000C302100E1002620013097
:100706002100E10026206130EB000030EC000130D2
:100716002100D2000130D30020006B082100D40054
:1007260020006C082100D50019211A30FB005E302C
:10073600FC006E30FD00FD0B9E2BFC0B9E2BFB0B75
:100746009E2B0000A030EB000030EC0001302100B1
:10075600D2000130D30020006B082100D400200015
:100766006C082100D50019211A30FB005E30FC0010
:100776006E30FD00FD0BBD2BFC0BBD2BFB0BBD2B0B
:1007860000008D0101302100E10026202B30EB0016
:100796000030EC0001302100D2000130D3002000EF
:1007A6006B082100D40020006C082100D500192117
:1007B6002230EB000030EC0002302100D20006307F
:1007C600D30020006B082100D40020006C08210013
:1007D600D50019212A082100D20020006B0821002B
:1007E600D30020006C082100D4007A210230D20008
:1007F6000130D30020006B082100D40020006C08D3
:100806002100D50019210D108E138D101A30FC0011
:10081600F830FD00FD0B0D2CFC0B0D2C0000080024
:1008260020008D1E482CAA0A80302D3AF000803018
:100836002A0670020318212C2D30AA002A0821004E
:10084600D20020006B082100D30020006C08210094
:10085600D4007A210230D2000130D30020006B0888
:100866002100D40020006C082100D5001921043095
:10087600FB000C30FC003330FD00FD0B402CFC0B64
:10088600402CFB0B402C000000000D1E7C2CAA0304
:1008960080302A06F0008030053A70020318552C85
:1008A6000530AA002A082100D20020006B0821008A
:1008B600D30020006C082100D4007A210230D20037
:1008C6000130D30020006B082100D40020006C0802
:1008D6002100D50019210430FB000C30FC00333018
:1008E600FD00FD0B742CFC0B742CFB0B742C000010
:0408F60000000800F6
:1008FA009625532383302100C0005F30C1009A300F
:10090A00C2001230C300292213241E2320087E3A73
:10091A00031D272D2108013A031D272D013021002F
:10092A00E1002620AD30EB000030EC000130210060
:10093A00D2000130D30020006B082100D40020002F
:10094A006C082100D50019218D158E142A08F00093
:10095A000030F01BFF30F100E830F4000330F500FE
:10096A00F4227008E9007108EA007008EE007108C4
:10097A00EF00932220008D118E1001302100E1003A
:10098A0026205530EB000030EC0001302100D20067
:10099A000130D30020006B082100D40020006C082D
:1009AA002100D50019213330FB00BB30FC00DF30B9
:1009BA00FD00FD0BDE2CFC0BDE2CFB0BDE2C0000FD
:1009CA00000001302100E10026204430EB00003015
:1009DA00EC0001302100D2000130D30020006B0866
:1009EA002100D40020006C082100D50019213C30D8
:1009FA00EB000030EC0002302100D2000630D300B8
:100A0A0020006B082100D40020006C082100D500CA
:100A1A0019212A082100D20020006B082100D300E6
:100A2A0020006C082100D4007A210230D200013063
:100A3A00D30020006B082100D40020006C0821009C
:100A4A00D5001921A0012108023A031D2D2DA1016B
:040A5A00892C2E2D88
:100B2C0032308400853085004930F0000130F1000E
:100B3C0020308600003087004A237B3084008530CB
:100B4C0085001830F0000130F100A0308600003034
:100B5C0087004A2393308400853085000230F000F2
:100B6C000130F10069308600003087004A2308000C
:020A640000345C
:020A660000345A
:100A68007334653463346F346E34643473340034EF
:020A78000A343E
:100A7A0049346E34733465347234743420345434E3
:100A8A0069346D3465344F34753474343A342034EF
:020A9A00003426
:100A9C007334653463346F346E34643473340034BB
:100AAC0049346E34733465347234743420345434B1
:100ABC0069346D3465344F34753474343A342034BD
:020ACC000034F4
:100ACE004C3461346D3470342034493473342034F2
:080ADE004F3466346634003425
:100AE60053346B34693461346434613473340034A0
:100AF60043346834613474347A3469347334613419
:0A0B06007634763461347334003421
:100B10004C3461346D3470342034493473342034AF
:060B20004F346E34003476
:040B26000034003463
:020000040001F9
:04000E00E23E131E9D
:00000001FF
