:020000006D2968
:0C0006000E30FD00FD0B05280000080076
:10001200833021009D0520004808F000F035F035BE
:10002200700821009D0403209D149D1C1928162888
:100032001C08F100F0011B08F0040030F104080074
:1000420009302000A8000030A9004830AA00003082
:0E005200AB00F03021009E009D011D1408003F
:0E006000212020004708C80009201D100800BC
:10006E00FF302000AC00FF30AD00FF30AE00FF309F
:10007E00AF005230B0000030B1004730B200003057
:10008E00B30021008E128E110E1624009501403001
:06009E0094009516080015
:1000A40020004708240091001418592856281108E4
:0400B400F000080050
:1000B80002302000C700302070082000A600710818
:1000C800A7001A30FC00F830FD00FD0B6928FC0B76
:1000D800692800000330C700302070082000A40001
:1000E8007108A5001A30FC00F830FD00FD0B7A28D5
:1000F800FC0B7A28000024082607F3002508273D72
:10010800F4007308F1007408F200F237F10C71087A
:10011800A0007208A1008030033AF0008030720617
:100128007002031D99287108523C0318A1280D1E5E
:0C013800A1280130A2000030A300080044
:1001440020003408C3003508C4003608C500370849
:10015400C6005F30B9000D30BA004430BB00013036
:10016400BC000130BD004308BE003508BF0036089E
:10017400C0003708C100DB30C2008D140E151A30E0
:10018400FC00F830FD00FD0BC528FC0BC528000061
:100194000E11C70152202000B80180303806F0004B
:1001A40080300A3A70020318E7283930840000309E
:1001B4008500380884070030B81BFF30853D0008EF
:1001C400C70052202000B80ACF280E151A30FC00B0
:1001D400F830FD00FD0BEC28FC0BEC2800000E11A0
:1001E4002230C70052202000B80180303806F000C9
:1001F4008030043A700203180F2943308400003021
:100204008500380884070030B81BFF30853D00089E
:0E021400C70052202000B80AF7280E15080077
:1002220020008D148E130D140E112030C7005220A1
:1002320020003408C700522020000E158E1702300D
:10024200FB000430FC00BA30FD00FD0B2629FC0B3C
:100252002629FB0B262900000E1C30298E130800CC
:100262000C3021008C000C3023008C001430210053
:100272008D0023008D01413021008E0023008E016C
:1002820021009E101E103720283020008D001F30C4
:10029200FB007130FC001E30FD00FD0B4E29FC0BF3
:1002A2004E29FB0B4E2900008D010D108E138D106F
:1002B2000E111A30FC00F830FD00FD0B5E29FC0B1C
:0602C2005E2900000800A7
:1002C80012001E00F003031D6429F103031D6429B5
:0202D80008001C
:1002DA002000A001A101A201A301A401A501A60178
:1002EA00A70131218330B4005F30B5009A30B600DF
:1002FA001230B700A2205C2000302306031D872994
:10030A0001302206031DC9297E30B40011218D1542
:10031A000630FB001330FC00AD30FD00FD0B9329C5
:10032A00FC0B9329FB0B9329000000008D1106306A
:10033A00FB001330FC00AD30FD00FD0BA229FC0BC5
:10034A00A229FB0BA229000000007E30B400112173
:10035A008D150630FB001330FC00AD30FD00FD0B9F
:10036A00B429FC0BB429FB0BB429000000008D1141
:10037A002430FB008330FC00CF30FD00FD0BC32985
:10038A00FC0BC329FB0BC329A201A3018029CC2999
:020000040001F9
:04000E00E23E131E9D
:00000001FF
